:020000040800F2
:10000000F006002025230008A1230008A3230008F0
:10001000A7230008AB230008AF230008000000005E
:10002000000000000000000000000000B3230008F2
:10003000B523000800000000B7230008B92300081A
:100040003F2300083F2300083F2300083F23000808
:100050003F2300083F2300083F2300083F230008F8
:100060003F2300083F2300083F2300083F230008E8
:100070003F2300083F2300083F2300083F230008D8
:100080003F2300083F2300083F2300083F230008C8
:100090003F2300083F2300083F2300083F230008B8
:1000A0003F2300083F2300083F2300083F230008A8
:1000B000372500083F2300083F2300083F2300089E
:1000C0003F2300083F2300083F2300083F23000888
:1000D0003F2300080B2800083F2300083F230008A7
:1000E0003F2300083F2300083F23000800F002F8E8
:1000F00000F03AF80AA090E8000C82448344AAF188
:100100000107DA4501D100F02FF8AFF2090EBAE885
:100110000F0013F0010F18BFFB1A43F0010318473B
:10012000042E0000242E0000103A24BF78C878C1A5
:10013000FAD8520724BF30C830C144BF04680C60ED
:10014000704700000023002400250026103A28BF35
:1001500078C1FBD8520728BF30C148BF0B60704739
:100160001FB51FBD10B510BD02F07BFD1146FFF796
:10017000F7FF02F0F7F802F099FD03B4FFF7F2FF82
:1001800003BC02F0A1FD00000CB50020019000901E
:100190006C48006840F480306A49086000BF6948D4
:1001A000006800F4003000900198401C0190009815
:1001B00018B90198B0F5A06FF1D16248006800F459
:1001C000003010B10120009001E000200090009864
:1001D000012843D15C48006840F010005A4908608B
:1001E0000846006820F0030008600846006840F0F8
:1001F0000200086053484068524948600846406819
:1002000048600846406840F480604860084640689E
:1002100020F47C1048600846406840F4E8104860CC
:100220000846006840F08070086000BF45480068DC
:1002300000F000700028F9D04248406820F0030028
:10024000404948600846406840F00200486000BFEE
:100250003C48406800F00C000828F9D10CBD10B5EE
:10026000FFF792FF10BD10B53648006840F001005E
:1002700034490860084640683449084031494860BC
:1002800008460068324908402E4908600846006860
:1002900020F4802008600846406820F4FE00486092
:1002A0004FF41F008860FFF7DAFF4FF00060294924
:1002B000086010BD10B5002100200022214B5B68B2
:1002C00003F00C0121B1042906D0082928D107E048
:1002D000214B224C236027E01F4B204C236023E05E
:1002E000184B5B6803F47010164B5B6803F48032A4
:1002F000022303EB904022B9194B4343174C236070
:100300000DE0104B5B6803F4003323B1144B4343FF
:10031000124C236003E0104B4343104C236003E076
:100320000D4B0E4C236000BF00BF064B5B68C3F350
:1003300003130C4CE15C094B1B68CB40074C23605A
:1003400010BD000000100240002002400000FFF835
:10035000FFFFF6FE08ED00E000127A00000000202A
:1003600000093D000400002031490143314A116079
:10037000704770B5002100230F22C47804B32D4CC0
:10038000246804F4E064C4F5E064210AC1F10403C4
:10039000CA40447804FA03F18478144021430901E7
:1003A000254C0678A155047804F01F050124AC40C3
:1003B00005786D11AD0005F1E025C5F8004109E0B3
:1003C000047804F01F050124AC401C4D067876111A
:1003D00045F8264070BD1A4A0A400243154B1B1FC0
:1003E0001A60704739B1134A121D12680243114B4B
:1003F0001B1D1A6006E00F4A121D126882430D4B46
:100400001B1D1A607047042808D14FF0E0210969CC
:1004100041F004014FF0E022116107E04FF0E021CC
:10042000096921F004014FF0E022116170470000DA
:100430000000FA050CED00E000E400E080E100E0DF
:1004400080FFFF1F10B50446CC48844208D101212B
:10045000042000F02DFB0021042000F029FB46E0E1
:10046000C748844208D10121082000F021FB002167
:10047000082000F01DFB3AE0C248844208D1012167
:10048000102000F015FB0021102000F011FB2EE0E1
:10049000BD48844208D10121202000F009FB002141
:1004A000202000F005FB22E0B848844208D1012159
:1004B000402000F0FDFA0021402000F0F9FA16E09B
:1004C000B348844208D10121802000F0F1FA0021D4
:1004D000802000F0EDFA0AE0AE48844207D1012105
:1004E000801500F0E5FA0021A01500F0E1FA10BD3A
:1004F00010B50121084600F0DBFA0021012000F0D0
:10050000D7FA10BD2DE9F041024600250026002053
:1005100000230024002791F803C00CF00F0591F888
:1005200003C00CF0100CBCF1000F03D091F802C016
:100530004CEA050591F800C0BCF1000F31D01468F9
:1005400000202BE04FF0010C0CFA00F3B1F800C0D2
:100550000CEA03069E4220D183004FF00F0C0CFAE8
:1005600003F7BC4305FA03FC4CEA040491F803C00A
:10057000BCF1280F06D14FF0010C0CFA00FCC2F8B8
:1005800014C00AE091F803C0BCF1480F05D14FF048
:10059000010C0CFA00FCC2F810C0401C0828D1D392
:1005A0001460B1F800C0BCF1FF0F34DD54680020C6
:1005B0002EE000F1080C4FF0010808FA0CF3B1F836
:1005C00000C00CEA03069E4221D183004FF00F0CBD
:1005D0000CFA03F7BC4305FA03FC4CEA040491F857
:1005E00003C0BCF1280F05D100F1080C08FA0CF883
:1005F000C2F8148091F803C0BCF1480F07D100F194
:10060000080C4FF0010808FA0CF8C2F81080401CE2
:100610000828CED35460BDE8F0814FF6FF71018009
:10062000022181700421C170704702460020936846
:100630000B400BB1012000E00020704701468868A4
:1006400080B2704702460020D3680B400BB10120F6
:1006500000E0002070470146C86880B27047016121
:100660007047416170470AB1016100E04161704724
:10067000C16070474FF480320A43826181618261B8
:1006800082698269704702460020434B18684FF622
:100690008073184040EA021008433F4B18607047CF
:1006A0003E49C8617047F0B50A4600230024002186
:1006B000002500F00046B6F1004F02D1364EF16938
:1006C00001E0354E7168C0F3034583B200F4401673
:1006D000B6F5401F08D121F070612F4E766826F0E4
:1006E00070662D4F7E6012E000F48016B6F5801F14
:1006F00006D1032606FA05F4A14341F0706106E035
:10070000460D360103FA06F6B14341F0706122B19D
:10071000460D360103FA06F6314300F00046B6F105
:10072000004F02D11C4EF16101E01B4E7160F0BD23
:1007300030B500228B071C0F0F2303FA04F2164B6F
:1007400008338C1053F824309343134C08348D1025
:1007500044F8253023468C1053F824308C07240F9E
:1007600000FA04F423430C4C08348D1044F825306F
:1007700030BD0A49DC3108607047000000080140C4
:10078000000C01400010014000140140001801401D
:10079000001C0140002001400000014000002042F8
:1007A000DF48006840F00100DD4908600846406805
:1007B000DC490840DA49486008460068DA490840E0
:1007C000D74908600846006820F480200860084681
:1007D000406820F4FE0048604FF41F0088607047B6
:1007E000CF49096821F48031CD4A1160114609686A
:1007F00021F480211160B0F5803F03D0B0F5802F47
:100800000ED106E0C649096841F48031C44A11603E
:1008100007E0C349096841F4A021C14A116000E022
:1008200000BF00BF704710B5014600220023002022
:100830004A11012A02D1BA4C236806E0022A02D1E9
:10084000B74C236A01E0B64C636A01F01F02012431
:1008500094401C400CB1012000E0002010BD38B5D0
:10086000002000900024002500BF3120FFF7DBFFAF
:1008700005460098401C00900098B0F5A06F01D08C
:10088000002DF2D03120FFF7CEFF08B1012400E0A7
:100890000024204638BD01460020A14A106820F0FF
:1008A000F80040EAC10010607047A0490860704736
:1008B000024600209A4B586820F47C1042EA01035B
:1008C0001843974B5860704798490866704701462F
:1008D0000020934A506820F003000843506070479E
:1008E0008F48406800F00C007047014600208C4A99
:1008F000506820F0F0000843506070470146002027
:10090000874A506820F4E060084350607047014611
:100910000020834A506820F4605040EAC1005060D3
:10092000704729B17E4A527A02437D4B5A7204E0E5
:100930007B4A527A82437A4B5A7270477B49D8314C
:100940000860704701460020754A506820F4404016
:100950000843506070470021714A20321170704A7C
:1009600082F82010012802D004280AD104E00121D5
:100970006B4A2032117005E00521694A203211705E
:1009800000E000BF00BF70476949086070476449D4
:10099000096A0143624A1162704765494439086037
:1009A000704730B500210022002400235C4D6D68A3
:1009B00005F00C0121B1042905D0082923D105E057
:1009C0005C4D056022E05B4D05601FE0544D6D6895
:1009D00005F47012524D6D6805F48034022505EB64
:1009E00092421CB9544D554305600BE04C4D6D6867
:1009F00005F400351DB1504D5543056002E04D4DE5
:100A00005543056002E04B4D056000BF00BF444DFB
:100A10006D6805F0F0010909484D6B5C0568DD4023
:100A200045603F4D6D6805F4E061090A434D6B5C1C
:100A30004568DD4085603A4D6D6805F46051C90A2E
:100A40003E4D6B5C4568DD40C560354D6D6805F415
:100A50004041890B3A4D6B5CC568B5FBF3F5056108
:100A600030BD29B12E4A526902432D4B5A6104E030
:100A70002B4A526982432A4B5A61704729B1284A4E
:100A800092690243264B9A6104E0254A92698243A7
:100A9000234B9A61704729B1214AD2690243204B06
:100AA000DA6104E01E4AD26982431D4BDA61704765
:100AB00029B11B4AD2680243194BDA6004E0184A94
:100AC000D2688243164BDA60704729B1144A126922
:100AD0000243134B1A6104E0114A12698243104B1E
:100AE0001A61704712494039086070470F49C8645D
:100AF00070470B49C87170470948406A40F08070E0
:100B000007494862704701460020054A92680A403A
:100B10000AB1012000E00020704701498872704747
:100B2000001002400000FFF8FFFFF6FE0000424206
:100B30008004424200127A0000093D0014000020A7
:100B40002400002010B50446FB48844209D101214D
:100B50008803FFF7ADFF00214FF48040FFF7A8FFA7
:100B600032E0F648844209D101214804FFF7ADFF85
:100B700000214FF40030FFF7A8FF25E0F048844241
:100B800009D101218804FFF7A0FF00214FF4802044
:100B9000FFF79BFF18E0EB48844209D10121C8040C
:100BA000FFF793FF00214FF40020FFF78EFF0BE0CB
:100BB000E548844208D101210805FFF786FF00219E
:100BC0004FF48010FFF781FF10BD2DE9F04786B08C
:100BD00005460E460024A24600BFA1460027B08964
:100BE00000B100BF2F462C8A4CF6FF700440F088FD
:100BF00004432C82AC894EF6F3100440B08831894E
:100C00000843718908430443AC81AC8A4FF6FF4026
:100C10000440B0890443AC8201A8FFF7C2FEC64875
:100C2000874202D1DDF810A001E0DDF80CA0A88910
:100C300000F4004040B10AEBCA0000EB0A10316832
:100C40004900B0FBF1F807E00AEBCA0000EB0A101C
:100C500031688900B0FBF1F86420B8FBF0F00401C2
:100C60002009642101FB1089A88900F4004040B1EB
:100C7000322000EBC900B0FBF1F000F007000443A4
:100C800008E0322000EB09106421B0FBF1F000F025
:100C90000F0004432C8106B0BDE8F0874FF41651D5
:100CA000016000218180C18001810C2141810021EE
:100CB0008181704710B502460020108A4FF2FF0371
:100CC00018400B884C8823438C882343CC882343CB
:100CD0001843108210BD0021018041808180C180B5
:100CE000704721B1828942F40052828104E08289F6
:100CF0004DF6FF731A4082817047F0B50346002419
:100D000000260025002040F66A17B94200D100BF36
:100D10001846C1F3421401F01F06012707FA06F531
:100D2000012C01D10C3004E0022C01D1103000E084
:100D300014301AB107682F43076002E00768AF4319
:100D40000760F0BD1AB1838A0B43838202E0838A75
:100D50008B4383827047028A4FF6F0731A400282F7
:100D6000028A0A430282704782894FF2FF731A4057
:100D7000828182890A438281704721B1828942F04F
:100D80000202828104E082894FF6FD731A4082815B
:100D90007047028A4FF6DF731A400282028A0A43C2
:100DA0000282704721B1028A42F48042028204E04A
:100DB000028A4BF6FF731A4002827047C1F30802A1
:100DC0008280704701468888C0F308007047818997
:100DD00041F0010181817047028BD2B20283028B04
:100DE00042EA012202837047028B02F47F420283AF
:100DF000028B0A430283704721B1828A42F02002AB
:100E0000828204E0828A4FF6DF731A408282704742
:100E100021B1828A42F01002828204E0828A4FF677
:100E2000EF731A408282704721B1828A42F0080231
:100E3000828204E0828A4FF6F7731A4082827047FA
:100E400021B1828942F40042828103E08289C2F3A7
:100E50000E028281704721B1828A42F4006282824E
:100E600004E0828A4FF2FF731A4082827047828ABE
:100E70004FF6FB731A408282828A0A43828270474D
:100E800021B1828A42F00202828204E0828A4FF615
:100E9000FD731A408282704702460020B1F5007F40
:100EA00000D100BF13880B400BB1012000E00020EF
:100EB000704701F40072B2F5007F00D100BFCA4351
:100EC0000280704770B502460024002300250020F0
:100ED00040F66A16B14200D100BFC1F3421501F0DD
:100EE0001F03012606FA03F3012D02D19689334030
:100EF00006E0022D02D1168A334001E0968A334083
:100F00000C12012606FA04F41688344013B10CB111
:100F1000012000E0002070BD10B50022002340F643
:100F20006A14A14200D100BF0A1201249440A3B266
:100F3000DC43048010BD0000003801400044004044
:100F400000480040004C0040005000400146002096
:100F5000FE4A106800F03800084310607047FB49F3
:100F6000096821F00801F94A116011460968014336
:100F700011607047F549096821F01001F34A1160CA
:100F800011460968014311607047F148EF49486014
:100F9000F04848607047EE48EC494860ED484860CA
:100FA0007047EA48006940F08000E84908617047EE
:100FB000E648006940F08000E44908617047042079
:100FC000E249C96801F0010109B101200EE0DF49E1
:100FD000C96801F0040109B1022007E0DB49C968D2
:100FE00001F0100109B1032000E00420704700B5B2
:100FF00002460423FFF7E3FF034603E0FFF7DFFFAA
:101000000346521E012B01D1002AF7D102B9052354
:10101000184600BD30B5044604254FF43020FFF7D4
:10102000E6FF0546042D17D1C848006940F00200CC
:10103000C649086108464461006940F04000086103
:101040004FF43020FFF7D3FF0546C048006941F652
:10105000FD710840BD490861284630BD10B5042423
:101060004FF43020FFF7C3FF0446042C16D1B748D5
:10107000006940F00400B54908610846006940F085
:10108000400008614FF43020FFF7B1FF0446AF483D
:10109000006941F6FB710840AC490861204610BD6B
:1010A00000B502460423FFF78AFF034603E0FFF77B
:1010B00086FF0346521E012B01D1002AF7D102B947
:1010C0000523184600BD10B504244FF43020FFF767
:1010D000E7FF0446042C16D19C48006940F0040048
:1010E0009A4908610846006940F0400008614FF4E1
:1010F0003020FFF7D5FF04469448006941F6FB71A4
:10110000084092490861204610BD00208F49C969F6
:1011100001F0020109B1012000E00020704730B564
:10112000A5250424FFF7F1FF00B100254FF430207E
:10113000FFF75DFF0446042C3AD185488349886057
:10114000844888600846006940F02000086108462D
:10115000006940F0400008614FF43020FFF747FF7E
:101160000446042C1BD17948006941F6DF71084020
:10117000764908610846006940F010000861764829
:101180000580E002FFF733FF0446052C10D06F48BE
:10119000006941F6EF7108406C49086108E0052CD0
:1011A00006D06A48006941F6EF7108406749086156
:1011B000204630BD78B506460C4604250020009038
:1011C000E802FFF714FF0546042D24D15F480069AB
:1011D00040F001005D4908613480E802FFF707FF35
:1011E0000546042D10D1B01C0090200C00990880F9
:1011F000E802FFF7FCFE05465448006941F6FE711F
:1012000008405249086106E05048006941F6FE7105
:1012100008404E490861284678BD70B504460D4621
:101220000426F002FFF7E3FE0646042E11D14748DC
:10123000006940F00100454908612580F002FFF790
:10124000D6FE06464148006941F6FE7108403F4916
:101250000861304670BD70B505460E460424E002B4
:10126000FFF7C5FE0446042C17D13948374988607A
:10127000384888600846006940F0100008612E80F8
:10128000E002FFF7B4FE0446052C06D02F480069A3
:1012900041F6EF7108402D490861204670BD2DE9E7
:1012A000F04304464FF6FF763746B046B146042574
:1012B000E443E6B2C4F30727C4F307484FEA1469CE
:1012C000E802FFF794FE0546042D49D120481F4946
:1012D0008860204888600846006940F01000086176
:1012E000FF2E06D01C4808300680E802FFF77FFE7C
:1012F0000546042D08D1FF2F06D017480A30078075
:10130000E802FFF774FE0546042D0AD1B8F1FF0F7D
:1013100007D011480C30A0F80080E802FFF767FE04
:101320000546042D0AD1B9F1FF0F07D00A480E3047
:10133000A0F80090E802FFF75AFE0546052D0FD0F1
:101340000248006941F6EF71084007E000200240C2
:1013500023016745AB89EFCD00F8FF1F664908619F
:101360002846BDE8F08330B5054604244FF430200C
:10137000FFF73DFE0446042C41D160485E49886079
:101380005F4888600846006940F020000861084610
:10139000006940F0400008614FF43020FFF727FE5D
:1013A0000446042C22D15448006941F6DF710840FC
:1013B000514908610846006940F0100008611DB1FC
:1013C00000205049088002E0A5204E4908804FF4D3
:1013D0003020FFF70CFE0446052C10D0464800696B
:1013E00041F6EF7108404449086108E0052C06D039
:1013F0004148006941F6DF7108403F4908612046D5
:1014000030BDF0B505460E46174604243B483A4920
:1014100088603B488860E002FFF7E9FD0446042C41
:1014200019D13548006940F010003349086147F090
:10143000F800304328433349891C0880E002FFF755
:10144000D6FD0446052C06D02B48006941F6EF7105
:101450000840294908612046F0BD2748C069800836
:1014600070472548006A704700202349096801F049
:10147000200109B1012000E00020704729B11E4A77
:10148000126902431C4B1A6104E01B4A1269824331
:10149000194B1A61704701460020012908D1164AEC
:1014A000D26902F001020AB1012008E0002006E042
:1014B000114AD2680A400AB1012000E000207047BA
:1014C0000D49C860704704200B49C96801F001014B
:1014D00009B101200EE00849C96801F0040109B111
:1014E000022007E00449C96801F0100109B1032096
:1014F00000E00420704700000020024023016745FF
:10150000AB89EFCD00F8FF1F10B50446FE488442BA
:1015100008D10121C014FFF7CBFA0021E014FFF736
:10152000C7FAC4E0B4F1804F08D101210846FFF7A3
:10153000CCFA00210120FFF7C8FAB8E0F348844252
:1015400008D101210220FFF7C0FA00210220FFF795
:10155000BCFAACE0EE48844208D101210420FFF738
:10156000B4FA00210420FFF7B0FAA0E0E948844271
:1015700008D101210820FFF7A8FA00210820FFF771
:10158000A4FA94E0E448844208D101211020FFF736
:101590009CFA00211020FFF798FA88E0DF48844287
:1015A00008D101212020FFF790FA00212020FFF729
:1015B0008CFA7CE0DA48844208D101214014FFF71C
:1015C00077FA00216014FFF773FA70E0D54884427F
:1015D00009D10121C804FFF76BFA00214FF4002064
:1015E000FFF766FA63E0D048844209D1012108057B
:1015F000FFF75EFA00214FF48010FFF759FA56E02A
:10160000CA48844209D101214805FFF751FA002157
:101610004FF40010FFF74CFA49E0C548844208D166
:1016200001214020FFF751FA00214020FFF74DFA39
:101630003DE0C048844208D101218020FFF745FAEF
:1016400000218020FFF741FA31E0BB48844208D1F5
:1016500001218015FFF739FA0021A015FFF735FAAF
:1016600025E0B648844209D101210804FFF720FA99
:1016700000214FF48030FFF71BFA18E0B048844295
:1016800009D101214804FFF713FA00214FF400307B
:10169000FFF70EFA0BE0AB48844208D10121880421
:1016A000FFF706FA00214FF48020FFF701FA10BD82
:1016B00000220288944B98420ED0994B98420BD04E
:1016C000B0F1804F08D0914B984205D0904B984292
:1016D00002D0904B984204D14FF68F731A404B883A
:1016E0001A438D4B984207D08C4B984204D04FF64A
:1016F000FF431A40CB881A4302808B8883850B886E
:101700000385814B98420BD0854B984208D08B4B78
:10171000984205D08A4B984202D08A4B984201D118
:101720000B7A038601238382704770B50024002260
:101730000023058C4FF6FE7635400584028C8388A5
:10174000048B4FF68F752C40B51E2C400D882C4312
:10175000751E2A400D892A434D882A436A4DA842A6
:101760000BD06F4DA84208D0744DA84205D0744DDF
:10177000A84202D0734DA84213D14FF6F7752A4004
:101780004D892A434FF6FB752A408D882A434FF630
:10179000FF652B404FF6FF552B408D892B43CD899C
:1017A0002B4383800483CD888586028470BD70B509
:1017B000002400220023058C4FF6EF763540058487
:1017C000028C8388048B48F6FF752C404FF6FF454A
:1017D0002C400D884FF6FF7606EA05252C434FF680
:1017E000DF752A400D8906EA05152A434D8806EA69
:1017F00005152A43444DA84202D0494DA8421DD1A7
:101800004FF67F752A404D894FF6FF7606EA05159B
:101810002A434FF6BF752A408D8806EA05152A43EC
:101820004FF6FF352B404FF2FF752B408D8906EAAE
:1018300085052B43CD8906EA85052B4383800483E8
:10184000CD880587028470BD70B500240022002376
:10185000058C4FF6FF6635400584028C8388848BA7
:101860004FF68F752C404FF6FC752C400D882C439D
:101870004FF6FF552A400D894FF6FF7606EA0525FB
:101880002A434D8806EA05252A431F4DA84202D067
:10189000234DA8421DD14FF2FF752A404D894FF6C6
:1018A000FF7606EA05252A434FF6FF352A408D8844
:1018B00006EA05252A434EF6FF752B404DF6FF75C7
:1018C0002B408D8906EA05152B43CD8906EA0515BF
:1018D0002B4383808483CD888587028470BD70B557
:1018E000002200230024058C4EF6FF763540058447
:1018F000038C8488828B48F6FF752A404FF6FF459B
:101900002A400D8820E00000002C01400004004027
:1019100000080040000C004000100040001400408F
:1019200000340140004C014000500140005401408F
:1019300000180040001C0040002000400040014012
:1019400000440140004801404FF6FF7606EA0525B5
:101950002A434DF6FF752B400D8906EA05352B43CA
:101960004D8806EA05352B43FA4DA84202D0FA4DC0
:10197000A84208D14BF6FF752C408D894FF6FF76B3
:1019800006EA85152C4384808283CD88A0F84050D8
:10199000038470BD828B4FF2FF331A408283828BA7
:1019A0004FF6FF7303EA01231A4382837047F0B5B1
:1019B0000C461546002200210026078C4EF6FF7CBF
:1019C00007EA0C070784828B018C4FF6FF7707EA42
:1019D000043640F6FF473A404FF6FF7707EA0527FF
:1019E0003A434FF6FF7707EA03373A43D94FB842F5
:1019F0000ED0D94FB8420BD0B0F1804F08D0D74F9E
:101A0000B84205D0D64FB84202D0D64FB84206D120
:101A10004DF6FF77394046F48057394305E047F6E5
:101A2000FF57394044F48057394382830184F0BD25
:101A3000828B4FF6F3731A408283828B0A43828330
:101A40007047F0B50C461546002200210026078C91
:101A50004FF6FF6C07EA0C070784828B018C4FF668
:101A6000FF7707EA04264FF60C773A404FF6FF77E8
:101A700007EA03172F433A43B64FB8420ED0B64F8A
:101A8000B8420BD0B0F1804F08D0B44FB84205D067
:101A9000B34FB84202D0B34FB84206D14FF6FF570A
:101AA000394046F48077394305E04FF2FF5739401B
:101AB00044F48077394382830184F0BD028B4FF276
:101AC000FF331A400283028B4FF6FF7303EA0123B0
:101AD0001A4302837047F0B50C46154600220021D8
:101AE0000026078C4FF6EF7C07EA0C070784028B71
:101AF000018C4FF6FF7707EA041640F6FF473A409D
:101B00004FF6FF7707EA03373A434FF6FF7707EAC6
:101B100005273A438F4FB8420ED08F4FB8420BD0B3
:101B2000B0F1804F08D08D4FB84205D08C4FB842ED
:101B300002D08C4FB84206D14FF6DF77394046F0DD
:101B40001007394305E04FF65F77394044F010073E
:101B5000394302830184F0BD028B4FF6F3731A40C0
:101B60000283028B0A4302837047F0B50C46154688
:101B700000220021068C4FF6FE773E400684028B41
:101B8000018C4FF60C7632407E1C06EA03162E437B
:101B90003243704EB0420ED06F4EB0420BD0B0F117
:101BA000804F08D06D4EB04205D06D4EB04202D08D
:101BB0006C4EB04206D14FF6FD76314044F001063E
:101BC000314305E04FF6F576314044F001063143EC
:101BD00002830184F0BD70B505460C465D48854220
:101BE0000ED05D4885420BD0B5F1804F08D05B48E0
:101BF000854205D05A48854202D05A48854200D1D4
:101C000000E000BF208850B92389A2886188284657
:101C1000FFF7ABFFE1882846FFF79EFF25E020880D
:101C200004280AD12389A28861882846FFF753FF38
:101C3000E1882846FFF742FF17E0208808280AD1EC
:101C40002389A28861882846FFF7FBFEE1882846A1
:101C5000FFF7EEFE09E02389A28861882846FFF796
:101C6000A6FEE1882846FFF795FE70BD2DE9F041FC
:101C700005460C4600260127608808B9022600E0C8
:101C80000026A088012801D1022700E00127208832
:101C9000A0B92389A28861882846FFF766FFE188FA
:101CA0002846FFF759FF23893A4631462846FFF771
:101CB00012FFE1882846FFF701FF13E02389A2887D
:101CC00061882846FFF707FFE1882846FFF7F6FE00
:101CD00023893A4631462846FFF747FFE1882846E0
:101CE000FFF73AFFBDE8F0810A884B881A438B88DA
:101CF0001A43CB881A430B891A434B891A438B89A1
:101D00001A43A0F8442070474FF6FF7181800021EC
:101D10000180C180418001727047002101804180B3
:101D20008180C180018141818181C1817047002111
:101D300001804180012181800021C18001817047A3
:101D40000021018041808180C180018141818181A8
:101D500070470000002C01400034014000040040A6
:101D600000080040000C004021B1028842F001024E
:101D7000028004E002884FF6FE731A40028070472A
:101D800031B1B0F8442042F40042A0F8442005E00C
:101D9000B0F84420C2F30E02A0F8442070471AB1F4
:101DA00083890B43838102E083898B43838170475E
:101DB0008182704741EA0203A0F8483070471AB1A7
:101DC00083890B43838102E083898B43838170473E
:101DD00001894FF6F8721140018170470A460021CF
:101DE00001894FF68F73194011430181704730B557
:101DF00004460D4629462046FFF7F0FF208940F0B3
:101E00000700208130BD2DE9F04104460D461646FD
:101E10001F46602D06D13B46012231462046FFF782
:101E20005AFE05E03B46012231462046FFF79DFE63
:101E300029462046FFF7D2FF208940F00700208185
:101E4000BDE8F08130B50C4600210189C9B24FF6DA
:101E5000FF7505EA0325154325432943018130BD5C
:101E60002DE9F04105460E461746984600244346A4
:101E70003A4631462846FFF7E5FF2C894FF6F870C1
:101E8000044044F007044FF68F70044044F070049F
:101E90002C81BDE8F081F0B504460D4616461F467C
:101EA0003B46324629462046FFF7CCFF208940F4C6
:101EB00080402081F0BD0185828270470A46002162
:101EC00001884FF68F731940114301807047F0B5B8
:101ED0000C4615461E460021002200230189028B74
:101EE000038C4FF6F877394021434FF6FC473A40D0
:101EF00040F201173A434FF6DD773B404FF6FF774C
:101F000007EA06172F433B43018102830384F0BD98
:101F10000A460021018B4FF68F731940114301834C
:101F200070470A460021018B48F6FF7319404FF6AF
:101F3000FF7303EA02231943018370470A46002115
:101F4000818B4FF68F7319401143818370470A4686
:101F50000021818B48F6FF7319404FF6FF7303EAA7
:101F6000022319438183704721B1028842F0800225
:101F7000028004E002884FF67F731A4002807047A7
:101F800021B1828842F00402828004E082884FF608
:101F9000FB731A408280704721B1828842F00802A8
:101FA000828004E082884FF6F7731A40828070477F
:101FB00021B1828842F00102828004E082884FF6DB
:101FC000FE731A40828070470A460021018B4FF64B
:101FD000F77319401143018370470A460021018BB2
:101FE0004FF2FF7319404FF6FF7303EA02231943C0
:101FF000018370470A460021818B4FF6F773194021
:102000001143818370470A460021818B4FF2FF7391
:1020100019404FF6FF7303EA022319438183704787
:102020000A460021018B4FF6FB73194011430183CF
:1020300070470A460021018B4FF6FF3319404FF6D7
:10204000FF7303EA02231943018370470A46002104
:10205000818B4FF6FB7319401143818370470A4609
:102060000021818B4FF6FF3319404FF6FF7303EACF
:1020700002231943818370470A460021018B4FF6E2
:102080007F7319401143018370470A460021018B79
:10209000C1F30E014FF6FF7303EA022319430183D4
:1020A00070470A460021818B4FF67F731940114318
:1020B000818370470A460021818BC1F30E014FF6E0
:1020C000FF7303EA02231943818370470A46002104
:1020D000018C4FF6FD7319401143018470470A4685
:1020E0000021018C4FF6F7731940114301847047AA
:1020F0000A460021018C4FF6DF7319404FF6FF733B
:1021000003EA02131943018470470A460021018C37
:102110004FF67F7319404FF6FF7303EA021319431A
:10212000018470470A460021018C4FF6FF53194085
:102130004FF6FF7303EA02231943018470470A46EE
:102140000021018C4FF2FF7319404FF6FF7303EA31
:1021500002231943018470470A460021018C4DF681
:10216000FF7319404FF6FF7303EA023319430184EA
:10217000704730B5002301248C40A3B2048C9C43EB
:102180000484048C02FA01F5ADB22C43048430BD02
:1021900030B5002304248C40A3B2048C9C430484F7
:1021A000048C02FA01F5ADB22C43048430BD70B545
:1021B0000346002000241846183001258D40ACB29B
:1021C0001D8CA5431D8409B1082909D100EB6100CC
:1021D000056825F0700505600568154305600EE08B
:1021E0000D1FC5F34E052844056825F4E04505603C
:1021F00005684FF6FF7606EA02263543056070BD96
:1022000021B1028842F00202028004E002884FF607
:10221000FD731A400280704721B1028842F0040227
:10222000028004E002884FF6FB731A400280704778
:1022300021B1828842F08002828004E082884FF6D9
:102240007F731A408280704702884FF6F7731A40F6
:10225000028002880A430280704782884FF68F739B
:102260001A40828082880A438280704702894FF632
:10227000F8731A40028102890A4302817047028979
:102280004FF67F731A40028102890A430281704728
:1022900081847047818570478186704701877047C8
:1022A00081877047A0F84010704702884FF6FF43BF
:1022B0001A40028002880A43028070470146888ED5
:1022C00070470146088F70470146888F7047014666
:1022D000B1F8400070470146888C70470146088D70
:1022E000704702460020138A0B400BB1012000E02A
:1022F00000207047CA430282704730B50246002072
:1023000000230024158A05EA0103958905EA0104E2
:1023100013B10CB1012000E0002030BDCA4302829D
:10232000704700000948804709480047FEE7FEE77C
:10233000FEE7FEE7FEE7FEE7FEE7FEE7FEE7FEE775
:1023400004480549054A064B70470000670200082B
:10235000ED000008F0000020F0060020F002002050
:10236000F00200204FF4FA7000F03EF84FF4A06045
:10237000FDF7FAFF00F058F800F02CF900F0FCF936
:10238000022142F20F7000F069F9022142F20F704F
:1023900000F0A5F903E000F038FA00F02FF9FAE7B1
:1023A000704700BFFEE700BFFEE700BFFEE700BFCB
:1023B000FEE7704770477047704700EBC001C900E7
:1023C0004FF0E0225161002191610521116100BFB0
:1023D0004FF0E021096901F480310029F8D004218F
:1023E0004FF0E0221161704700B5034603E04FF45F
:1023F0007A70FFF7E2FF181EA3F101018BB2F6D14C
:1024000000BD10B5044603E04FF47A70FFF7ECFF0F
:10241000201EA4F101018CB2F6D110BD10B54FF40D
:10242000A060FDF7A1FF10BD10B5FEF7B9F94FF49C
:102430008030FEF7D5F9FEF712FA0446012C24D1BC
:102440004FF4E0110004FEF733FA0020FEF74DFAD6
:10245000A002FEF753FA0020FEF759FA0220FEF719
:1024600075FD1020FEF786FD0120FEF72DFA00BF56
:102470003920FEF7D8F90028FAD00220FEF727FA13
:1024800000BFFEF72DFA0828FBD1012144F27C00A1
:10249000FEF7F4FA10BD000000B585B00121082058
:1024A000FEF7ECFA01210846FEF7F5FA4020ADF8F8
:1024B000100010208DF8130003208DF8120004A9DD
:1024C0003F48FEF71FF88020ADF8100028208DF857
:1024D000130003208DF8120004A93948FEF712F802
:1024E0004CF24F30ADF804004720ADF8000000205A
:1024F000ADF80600ADF8020069464FF08040FFF7E6
:10250000D7F8012211469007FFF749FC1C208DF8EF
:102510000C0001208DF80D0000208DF80E00012028
:102520008DF80F0003A8FDF724FF01218807FFF7AE
:102530001BFC05B000BD10B501218807FFF7DDFECB
:1025400020B120480068401C1E490860012188070E
:10255000FFF7E4FE10BD10B540211948FEF781F8E1
:1025600040211748FEF77BF81420FFF726FF402193
:102570001348FEF776F800BF80211148FEF755F8A2
:102580000028F9D000204FF08041888400BF8021CE
:102590000B48FEF74AF80128F9D04FF08040808CB4
:1025A000094908600846006800F058FC04460749DD
:1025B00000F092FB064908600846006810BD000064
:1025C000000C01402800002030000020000068427C
:1025D0002C00002008B501211C20FEF74FFA43F61D
:1025E0000150ADF8000010208DF8030003208DF895
:1025F000020069465B48FDF785FF08BD10B5002263
:102600004FF480615748FEF72EF801221103554818
:10261000FEF729F800224FF400615248FEF723F834
:10262000012251034F48FEF71EF84F480088C0EBC7
:1026300000104E4A1288A2EB400081B24C48FFF7CE
:102640002FFE49480088C0EB0010484A128802EB70
:10265000400081B24748FFF723FE10BD30B589B076
:1026600005460C4601210220FEF715FA012108203B
:10267000FEF704FA01210846FEF700FA0120ADF842
:10268000200018208DF8230003208DF8220008A9CF
:102690003448FDF737FFADF80850ADF8044000208E
:1026A000ADF80600ADF80A0001A93148FFF700F8BF
:1026B0006020ADF810000020ADF818000120ADF842
:1026C000120004A92A48FFF7BFF808212848FFF79D
:1026D00091FC01212648FFF747FB09B030BD30B51A
:1026E00089B005460C4601210420FEF7D4F90121EA
:1026F0000820FEF7C3F901210846FEF7BFF94FF4A1
:102700008070ADF8200018208DF8230003208DF88C
:10271000220008A91348FDF7F5FEADF80850ADF802
:1027200004400020ADF80600ADF80A0001A91148E8
:10273000FEF7BEFF6020ADF810000020ADF81800D5
:102740000120ADF8120004A90A48FFF77DF808211E
:102750000848FFF74FFC01210648FFF705FB09B0C9
:1027600030BD0000000C01403C000020340000207F
:10277000000400400008004000B587B00121880334
:10278000FEF789F901210420FEF778F904208DF87D
:102790001B000002ADF8180003208DF81A0006A9EE
:1027A000FE48FDF7AFFE25208DF8040001208DF8CE
:1027B000070000208DF8050002208DF8060001A812
:1027C000FDF7D7FD4FF4E13002900020ADF80C008A
:1027D000ADF80E00ADF81000ADF814000C20ADF807
:1027E000120002A9EE48FEF7F0F9012240F225514D
:1027F000EB48FEF782FA0121E948FEF772FA402120
:10280000E748FEF756FB07B000BD70B540F2255112
:10281000E348FEF757FB002819D040F22551E04865
:10282000FEF77AFBDE48FEF7CDFAC5B2DD48007848
:1028300070B9B32D0CD10120DA490870DA4801785B
:102840000078401CD84A1070D84820F8115086E013
:10285000D448007801280ED1B32D0CD10220D149E3
:102860000870D14801780078401CCF4A1070CF48DA
:1028700020F8115073E0CB480078022825D1CA48CF
:1028800001780078401CC84A1070C84820F81150E0
:10289000104600780A2801DA5B2D60D10320C14977
:1028A00008700120C2490870BF480078801EBF49E7
:1028B00031F81000BF490880BB480078C01EBB49F2
:1028C00031F81000BC49088049E0B6480078032878
:1028D00036D1B5480078401EB44931F810005B2865
:1028E0001ED1002240F22551AD48FEF706FAB0484D
:1028F000007838B1AF480088401EAF490988484386
:10290000AE4908800020AA490870A7490870A54967
:102910000870012240F22551A148FEF7EEF91EE0B1
:102920000020A0490870A0490870002405E000209C
:102930009E4921F81400601CC4B20A2CF7DB0EE09B
:1029400000209849087098490870002405E000208C
:10295000964921F81400601CC4B20A2CF7DB70BD44
:1029600070B540F225518E48FEF7ACFA002819D018
:1029700040F225518A48FEF7CFFA8948FEF722FA3D
:10298000C5B28F48007870B9772D0CD101208C49E1
:1029900008708C4801780078401C8A4A10708A4878
:1029A00020F8115086E08648007801280ED1772D56
:1029B0000CD1022082490870824801780078401CBE
:1029C000804A1070804820F8115073E07C480078ED
:1029D000022825D17B4801780078401C794A107084
:1029E000794820F81150104600780A2801DA4B2D5A
:1029F00060D1032072490870012074490870714841
:102A00000078C01E704931F810006A4908806D488E
:102A10000078801E6C4931F810006D49088049E04B
:102A200067480078032836D166480078401E66491A
:102A300031F810004B281ED1002240F22551584891
:102A4000FEF75BF96148007838B15A48008861495F
:102A500008805F4800886049088000205B49087052
:102A60005849087056490870012240F225514C48D7
:102A7000FEF743F91EE000205149087051490870E3
:102A8000002405E00020504921F81400601CC4B265
:102A90000A2CF7DB0EE0002049490870494908700C
:102AA000002405E00020484921F81400601CC4B24D
:102AB0000A2CF7DB70BD70B540F225513848FEF79F
:102AC00001FA002819D040F225513548FEF724FAC2
:102AD0003348FEF777F9C5B24048007870B9552DF4
:102AE0000CD101203D4908703D4801780078401C18
:102AF0003B4A10703B4820F81150A3E0374800785B
:102B000001280ED1552D0CD10220344908703448CB
:102B100001780078401C324A1070324820F8115079
:102B200090E02E48007802281DD12D4801780078C9
:102B3000401C2B4A10702B4820F81150104600788A
:102B40000A2801DA2B2D7DD10320244908700120A9
:102B50002549087022480078801E224931F810006B
:102B6000144908806EE01D48007803285BD11C489A
:102B70000078401E1B4931F810002B2843D1002259
:102B800040F225510648FEF7B8F81748007818B10A
:102B90000848008809490880002027E00008014013
:102BA0000038014045000020440000205000002073
:102BB0004600002036000020380000203C000020A5
:102BC0004800002047000020640000204900002049
:102BD0003A00002040000020420000204B0000206E
:102BE0004A000020780000204C00002016490870A0
:102BF0001649087016490870012240F225511548FF
:102C0000FEF77BF81EE00020114908700F4908709C
:102C1000002405E00020104921F81400601CC4B213
:102C20000A2CF7DB0EE000200949087007490870FC
:102C3000002405E00020084921F81400601CC4B2FB
:102C40000A2CF7DB70BD00004C0000204A00002079
:102C50004B0000200038014078000020704770478A
:102C60007047754600F02CF8AE460500694653469D
:102C700020F00700854618B020B5FFF761FBBDE8DE
:102C800020404FF000064FF000074FF000084FF0D3
:102C9000000B21F00701AC46ACE8C009ACE8C00964
:102CA000ACE8C009ACE8C0098D46704710B50446D1
:102CB000AFF300802046BDE81040FDF75EBA00008B
:102CC000004870478C00002001491820ABBEFEE789
:102CD00026000200704700004FF47F0C1CEAD0125F
:102CE0001EBF1CEAD11392EA0C0F93EA0C0F00F0FE
:102CF000858090EA010F48BF42F4807240F4000CD6
:102D000041F400002CF07F4120F07F4000B581426B
:102D1000A2EB03020FF2081CACEB504EC0F1000016
:102D20009EF800E04FEA4E0E00FB0EFC38BF490053
:102D30004FEA2C1C02F5FA020CFB0EF34FEACE1EF2
:102D40004FEA112C4FEAC1210EEB635E42EB2242A7
:102D50000EFB0CFC4FEA1C5300FB03114FEA112C35
:102D60004FEA01310EFB0CFC4FEADC4C00FB0C116E
:102D7000C14228BF09184CEB03335DF804EB10EB9C
:102D8000410143EBC250B2F57C0F38BF704729D5E3
:102D900012F0F00F1CBF00F1C04000F0004070477F
:102DA000008182838485868788898B8C8D8E8F9124
:102DB0009293959697999A9C9D9FA0A2A3A5A7A848
:102DC000AAACAEB0B2B3B5B7B9BCBEC0C2C5C7C974
:102DD000CCCED1D4D7D9DCDFE2E6E9ECF0F3F7FAD8
:102DE000FE0000004FEA400C0CF1807CBCF17E4FED
:102DF00028BF7047B0F1C04000F08EB890EA010FD4
:102E00000CEAD11348BF42F48072624538BF634573
:102E100007D213F47F0F16D080EA010000F00040C3
:102E2000704710B500F032F8097EFC3E00F005B89E
:102E300080EA010000F00040704780EA010000F0E5
:102E4000004000F069B812F47F0F04BF02487047D9
:102E500080EA010000F060B80000C07F10F000417F
:102E600048BF4042B0FA80F310FA03F2C3F19D0369
:102E70000BD051EAC35101EB1220530638BF704703
:102E800000F1010008BF20F0010070470EF1020EB2
:102E90002EF0030E5EF8044B244204D44FEA4102A4
:102EA000B2F17F4F11D84FEA4003B3F17F4F0CD8F6
:102EB0000ED14FEAD07CB2F17F4F0CEB4C0C0CF1F1
:102EC000020C08BF4CEBD17C04E04FF0080C01E091
:102ED0004FEAD17C0CEB4C0324FA03F404F0070412
:102EE000B4F1040C06D20EEB840CBDE810404CF09B
:102EF000010C6047DFE80CF0070802024FF00040C9
:102F0000A0F5800010BD0846420018BFD2F18072C3
:102F100088BF00F0004010BDFF2141EAD050C0053D
:102F200070470000442F00080000002050000000FF
:102F300028010008942F000850000020A00600007F
:102F40004401000800A24A04000000000000000044
:102F5000010203040607080900000000010203043F
:102F60000102030406070809020406080000000025
:102F70000000000000000000C40900000000000084
:102F80000000000000000000000000000000000041
:042F9000000000003D
:04000005080000ED02
:00000001FF
