:020000040800F2
:10000000A0060020C12500084D2800084F28000840
:1000100053280008572800085B280008000000004B
:100020000000000000000000000000005F28000841
:100030006128000800000000632800086528000807
:10004000DB250008DB250008DB250008DB25000890
:10005000DB250008DB250008DB250008DB25000880
:10006000DB250008DB250008DB250008DB25000870
:10007000DB250008DB250008DB250008DB25000860
:10008000DB250008DB250008DB250008DB25000850
:10009000DB250008DB250008DB250008DB25000840
:1000A000DB250008DB250008DB250008DB25000830
:1000B000E3290008DB250008DB250008DB25000814
:1000C000DB250008DB250008DB250008DB25000810
:1000D000DB250008DB250008DB250008DB25000800
:1000E000DB250008DB250008DB25000800F002F80E
:1000F00000F03AF80AA090E8000C82448344AAF188
:100100000107DA4501D100F02FF8AFF2090EBAE885
:100110000F0013F0010F18BFFB1A43F0010318473B
:10012000A82D0000C82D0000103A24BF78C878C15F
:10013000FAD8520724BF30C830C144BF04680C60ED
:10014000704700000023002400250026103A28BF35
:1001500078C1FBD8520728BF30C148BF0B60704739
:100160001FB51FBD10B510BD02F04DFD1146FFF7C4
:10017000F7FF02F01BFB02F06BFD03B4FFF7F2FF89
:1001800003BC02F073FD00000CB50020019000904C
:100190006C48006840F480306A49086000BF6948D4
:1001A000006800F4003000900198401C0190009815
:1001B00018B90198B0F5A06FF1D16248006800F459
:1001C000003010B10120009001E000200090009864
:1001D000012843D15C48006840F010005A4908608B
:1001E0000846006820F0030008600846006840F0F8
:1001F0000200086053484068524948600846406819
:1002000048600846406840F480604860084640689E
:1002100020F47C1048600846406840F4E8104860CC
:100220000846006840F08070086000BF45480068DC
:1002300000F000700028F9D04248406820F0030028
:10024000404948600846406840F00200486000BFEE
:100250003C48406800F00C000828F9D10CBD10B5EE
:10026000FFF792FF10BD10B53648006840F001005E
:1002700034490860084640683449084031494860BC
:1002800008460068324908402E4908600846006860
:1002900020F4802008600846406820F4FE00486092
:1002A0004FF41F008860FFF7DAFF4FF00060294924
:1002B000086010BD10B5002100200022214B5B68B2
:1002C00003F00C0121B1042906D0082928D107E048
:1002D000214B224C236027E01F4B204C236023E05E
:1002E000184B5B6803F47010164B5B6803F48032A4
:1002F000022303EB904022B9194B4343174C236070
:100300000DE0104B5B6803F4003323B1144B4343FF
:10031000124C236003E0104B4343104C236003E076
:100320000D4B0E4C236000BF00BF064B5B68C3F350
:1003300003130C4CE15C094B1B68CB40074C23605A
:1003400010BD000000100240002002400000FFF835
:10035000FFFFF6FE08ED00E000127A00000000202A
:1003600000093D000400002031490143314A116079
:10037000704770B5002100230F22C47804B32D4CC0
:10038000246804F4E064C4F5E064210AC1F10403C4
:10039000CA40447804FA03F18478144021430901E7
:1003A000254C0678A155047804F01F050124AC40C3
:1003B00005786D11AD0005F1E025C5F8004109E0B3
:1003C000047804F01F050124AC401C4D067876111A
:1003D00045F8264070BD1A4A0A400243154B1B1FC0
:1003E0001A60704739B1134A121D12680243114B4B
:1003F0001B1D1A6006E00F4A121D126882430D4B46
:100400001B1D1A607047042808D14FF0E0210969CC
:1004100041F004014FF0E022116107E04FF0E021CC
:10042000096921F004014FF0E022116170470000DA
:100430000000FA050CED00E000E400E080E100E0DF
:1004400080FFFF1F10B50446CC48844208D101212B
:10045000042000F02DFB0021042000F029FB46E0E1
:10046000C748844208D10121082000F021FB002167
:10047000082000F01DFB3AE0C248844208D1012167
:10048000102000F015FB0021102000F011FB2EE0E1
:10049000BD48844208D10121202000F009FB002141
:1004A000202000F005FB22E0B848844208D1012159
:1004B000402000F0FDFA0021402000F0F9FA16E09B
:1004C000B348844208D10121802000F0F1FA0021D4
:1004D000802000F0EDFA0AE0AE48844207D1012105
:1004E000801500F0E5FA0021A01500F0E1FA10BD3A
:1004F00010B50121084600F0DBFA0021012000F0D0
:10050000D7FA10BD2DE9F041024600250026002053
:1005100000230024002791F803C00CF00F0591F888
:1005200003C00CF0100CBCF1000F03D091F802C016
:100530004CEA050591F800C0BCF1000F31D01468F9
:1005400000202BE04FF0010C0CFA00F3B1F800C0D2
:100550000CEA03069E4220D183004FF00F0C0CFAE8
:1005600003F7BC4305FA03FC4CEA040491F803C00A
:10057000BCF1280F06D14FF0010C0CFA00FCC2F8B8
:1005800014C00AE091F803C0BCF1480F05D14FF048
:10059000010C0CFA00FCC2F810C0401C0828D1D392
:1005A0001460B1F800C0BCF1FF0F34DD54680020C6
:1005B0002EE000F1080C4FF0010808FA0CF3B1F836
:1005C00000C00CEA03069E4221D183004FF00F0CBD
:1005D0000CFA03F7BC4305FA03FC4CEA040491F857
:1005E00003C0BCF1280F05D100F1080C08FA0CF883
:1005F000C2F8148091F803C0BCF1480F07D100F194
:10060000080C4FF0010808FA0CF8C2F81080401CE2
:100610000828CED35460BDE8F0814FF6FF71018009
:10062000022181700421C170704702460020936846
:100630000B400BB1012000E00020704701468868A4
:1006400080B2704702460020D3680B400BB10120F6
:1006500000E0002070470146C86880B27047016121
:100660007047416170470AB1016100E04161704724
:10067000C16070474FF480320A43826181618261B8
:1006800082698269704702460020434B18684FF622
:100690008073184040EA021008433F4B18607047CF
:1006A0003E49C8617047F0B50A4600230024002186
:1006B000002500F00046B6F1004F02D1364EF16938
:1006C00001E0354E7168C0F3034583B200F4401673
:1006D000B6F5401F08D121F070612F4E766826F0E4
:1006E00070662D4F7E6012E000F48016B6F5801F14
:1006F00006D1032606FA05F4A14341F0706106E035
:10070000460D360103FA06F6B14341F0706122B19D
:10071000460D360103FA06F6314300F00046B6F105
:10072000004F02D11C4EF16101E01B4E7160F0BD23
:1007300030B500228B071C0F0F2303FA04F2164B6F
:1007400008338C1053F824309343134C08348D1025
:1007500044F8253023468C1053F824308C07240F9E
:1007600000FA04F423430C4C08348D1044F825306F
:1007700030BD0A49DC3108607047000000080140C4
:10078000000C01400010014000140140001801401D
:10079000001C0140002001400000014000002042F8
:1007A000DF48006840F00100DD4908600846406805
:1007B000DC490840DA49486008460068DA490840E0
:1007C000D74908600846006820F480200860084681
:1007D000406820F4FE0048604FF41F0088607047B6
:1007E000CF49096821F48031CD4A1160114609686A
:1007F00021F480211160B0F5803F03D0B0F5802F47
:100800000ED106E0C649096841F48031C44A11603E
:1008100007E0C349096841F4A021C14A116000E022
:1008200000BF00BF704710B5014600220023002022
:100830004A11012A02D1BA4C236806E0022A02D1E9
:10084000B74C236A01E0B64C636A01F01F02012431
:1008500094401C400CB1012000E0002010BD38B5D0
:10086000002000900024002500BF3120FFF7DBFFAF
:1008700005460098401C00900098B0F5A06F01D08C
:10088000002DF2D03120FFF7CEFF08B1012400E0A7
:100890000024204638BD01460020A14A106820F0FF
:1008A000F80040EAC10010607047A0490860704736
:1008B000024600209A4B586820F47C1042EA01035B
:1008C0001843974B5860704798490866704701462F
:1008D0000020934A506820F003000843506070479E
:1008E0008F48406800F00C007047014600208C4A99
:1008F000506820F0F0000843506070470146002027
:10090000874A506820F4E060084350607047014611
:100910000020834A506820F4605040EAC1005060D3
:10092000704729B17E4A527A02437D4B5A7204E0E5
:100930007B4A527A82437A4B5A7270477B49D8314C
:100940000860704701460020754A506820F4404016
:100950000843506070470021714A20321170704A7C
:1009600082F82010012802D004280AD104E00121D5
:100970006B4A2032117005E00521694A203211705E
:1009800000E000BF00BF70476949086070476449D4
:10099000096A0143624A1162704765494439086037
:1009A000704730B500210022002400235C4D6D68A3
:1009B00005F00C0121B1042905D0082923D105E057
:1009C0005C4D056022E05B4D05601FE0544D6D6895
:1009D00005F47012524D6D6805F48034022505EB64
:1009E00092421CB9544D554305600BE04C4D6D6867
:1009F00005F400351DB1504D5543056002E04D4DE5
:100A00005543056002E04B4D056000BF00BF444DFB
:100A10006D6805F0F0010909484D6B5C0568DD4023
:100A200045603F4D6D6805F4E061090A434D6B5C1C
:100A30004568DD4085603A4D6D6805F46051C90A2E
:100A40003E4D6B5C4568DD40C560354D6D6805F415
:100A50004041890B3A4D6B5CC568B5FBF3F5056108
:100A600030BD29B12E4A526902432D4B5A6104E030
:100A70002B4A526982432A4B5A61704729B1284A4E
:100A800092690243264B9A6104E0254A92698243A7
:100A9000234B9A61704729B1214AD2690243204B06
:100AA000DA6104E01E4AD26982431D4BDA61704765
:100AB00029B11B4AD2680243194BDA6004E0184A94
:100AC000D2688243164BDA60704729B1144A126922
:100AD0000243134B1A6104E0114A12698243104B1E
:100AE0001A61704712494039086070470F49C8645D
:100AF00070470B49C87170470948406A40F08070E0
:100B000007494862704701460020054A92680A403A
:100B10000AB1012000E00020704701498872704747
:100B2000001002400000FFF8FFFFF6FE0000424206
:100B30008004424200127A0000093D0014000020A7
:100B40002400002001460020FE4A106800F0380012
:100B5000084310607047FB49096821F00801F94A11
:100B6000116011460968014311607047F549096831
:100B700021F01001F34A1160114609680143116028
:100B80007047F148EF494860F04848607047EE48C8
:100B9000EC494860ED4848607047EA48006940F019
:100BA0008000E84908617047E648006940F080002D
:100BB000E449086170470420E249C96801F0010175
:100BC00009B101200EE0DF49C96801F0040109B153
:100BD000022007E0DB49C96801F0100109B10320D8
:100BE00000E00420704700B502460423FFF7E3FF4E
:100BF000034603E0FFF7DFFF0346521E012B01D13E
:100C0000002AF7D102B90523184600BD30B50446C5
:100C100004254FF43020FFF7E6FF0546042D17D1D9
:100C2000C848006940F00200C649086108464461AE
:100C3000006940F0400008614FF43020FFF7D3FF17
:100C40000546C048006941F6FD710840BD4908618C
:100C5000284630BD10B504244FF43020FFF7C3FF01
:100C60000446042C16D1B748006940F00400B54989
:100C700008610846006940F0400008614FF43020E8
:100C8000FFF7B1FF0446AF48006941F6FB71084029
:100C9000AC490861204610BD00B502460423FFF7A9
:100CA0008AFF034603E0FFF786FF0346521E012B2F
:100CB00001D1002AF7D102B90523184600BD10B5AD
:100CC00004244FF43020FFF7E7FF0446042C16D12C
:100CD0009C48006940F004009A4908610846006990
:100CE00040F0400008614FF43020FFF7D5FF044684
:100CF0009448006941F6FB7108409249086120461A
:100D000010BD00208F49C96901F0020109B101201D
:100D100000E00020704730B5A5250424FFF7F1FF5F
:100D200000B100254FF43020FFF75DFF0446042C8E
:100D30003AD18548834988608448886008460069BC
:100D400040F0200008610846006940F0400008615A
:100D50004FF43020FFF747FF0446042C1BD179489D
:100D6000006941F6DF71084076490861084600696C
:100D700040F01000086176480580E002FFF733FF7D
:100D80000446052C10D06F48006941F6EF71084009
:100D90006C49086108E0052C06D06A48006941F6F4
:100DA000EF71084067490861204630BD78B50646B6
:100DB0000C46042500200090E802FFF714FF0546CA
:100DC000042D24D15F48006940F001005D490861AD
:100DD0003480E802FFF707FF0546042D10D1B01C50
:100DE0000090200C00990880E802FFF7FCFE054601
:100DF0005448006941F6FE7108405249086106E016
:100E00005048006941F6FE7108404E490861284685
:100E100078BD70B504460D460426F002FFF7E3FEE8
:100E20000646042E11D14748006940F001004549AB
:100E300008612580F002FFF7D6FE064641480069AA
:100E400041F6FE7108403F490861304670BD70B5FB
:100E500005460E460424E002FFF7C5FE0446042CB6
:100E600017D1394837498860384888600846006992
:100E700040F0100008612E80E002FFF7B4FE044647
:100E8000052C06D02F48006941F6EF7108402D4926
:100E90000861204670BD2DE9F04304464FF6FF7609
:100EA0003746B046B1460425E443E6B2C4F307270B
:100EB000C4F307484FEA1469E802FFF794FE0546B9
:100EC000042D49D120481F49886020488860084681
:100ED000006940F010000861FF2E06D01C48083061
:100EE0000680E802FFF77FFE0546042D08D1FF2F9C
:100EF00006D017480A300780E802FFF774FE05465F
:100F0000042D0AD1B8F1FF0F07D011480C30A0F81A
:100F10000080E802FFF767FE0546042D0AD1B9F10B
:100F2000FF0F07D00A480E30A0F80090E802FFF744
:100F30005AFE0546052D0FD00248006941F6EF71B3
:100F4000084007E00020024023016745AB89EFCD50
:100F500000F8FF1F664908612846BDE8F08330B5F8
:100F6000054604244FF43020FFF73DFE0446042CD0
:100F700041D160485E4988605F48886008460069E2
:100F800040F0200008610846006940F04000086118
:100F90004FF43020FFF727FE0446042C22D154489A
:100FA000006941F6DF71084051490861084600694F
:100FB00040F0100008611DB100205049088002E097
:100FC000A5204E4908804FF43020FFF70CFE044660
:100FD000052C10D04648006941F6EF71084044499D
:100FE000086108E0052C06D04148006941F6DF7130
:100FF00008403F490861204630BDF0B505460E4621
:10100000174604243B483A4988603B488860E00220
:10101000FFF7E9FD0446042C19D13548006940F07A
:1010200010003349086147F0F80030432843334942
:10103000891C0880E002FFF7D6FD0446052C06D087
:101040002B48006941F6EF710840294908612046A4
:10105000F0BD2748C069800870472548006A70477E
:1010600000202349096801F0200109B1012000E0B6
:101070000020704729B11E4A126902431C4B1A61B5
:1010800004E01B4A12698243194B1A6170470146FA
:101090000020012908D1164AD26902F001020AB1E2
:1010A000012008E0002006E0114AD2680A400AB197
:1010B000012000E0002070470D49C86070470420FF
:1010C0000B49C96801F0010109B101200EE008498E
:1010D000C96801F0040109B1022007E00449C968A8
:1010E00001F0100109B1032000E004207047000066
:1010F0000020024023016745AB89EFCD00F8FF1FB8
:1011000010B50446FE48844208D10121C014FFF7FF
:10111000CFFC0021E014FFF7CBFCC4E0B4F1804F1A
:1011200008D101210846FFF7D0FC00210120FFF77C
:10113000CCFCB8E0F348844208D101210220FFF73B
:10114000C4FC00210220FFF7C0FCACE0EE48844262
:1011500008D101210420FFF7B8FC00210420FFF78B
:10116000B4FCA0E0E948844208D101210820FFF73F
:10117000ACFC00210820FFF7A8FC94E0E44884427E
:1011800008D101211020FFF7A0FC00211020FFF75B
:101190009CFC88E0DF48844208D101212020FFF731
:1011A00094FC00212020FFF790FC7CE0DA48844288
:1011B00008D101214014FFF77BFC00216014FFF7E8
:1011C00077FC70E0D548844209D10121C804FFF7BB
:1011D0006FFC00214FF40020FFF76AFC63E0D04869
:1011E000844209D101210805FFF762FC00214FF478
:1011F0008010FFF75DFC56E0CA48844209D1012106
:101200004805FFF755FC00214FF40010FFF750FC94
:1012100049E0C548844208D101214020FFF755FC30
:1012200000214020FFF751FC3DE0C048844208D136
:1012300001218020FFF749FC00218020FFF745FCB9
:1012400031E0BB48844208D101218015FFF73DFC05
:101250000021A015FFF739FC25E0B648844209D1EA
:1012600001210804FFF724FC00214FF48030FFF730
:101270001FFC18E0B048844209D101214804FFF75F
:1012800017FC00214FF40030FFF712FC0BE0AB48D5
:10129000844208D101218804FFF70AFC00214FF4A1
:1012A0008020FFF705FC10BD00220288944B984275
:1012B0000ED0994B98420BD0B0F1804F08D0914B93
:1012C000984205D0904B984202D0904B984204D15E
:1012D0004FF68F731A404B881A438D4B984207D0B4
:1012E0008C4B984204D04FF6FF431A40CB881A43E8
:1012F00002808B8883850B880385814B98420BD0B5
:10130000854B984208D08B4B984205D08A4B984227
:1013100002D08A4B984201D10B7A03860123838243
:10132000704770B5002400220023058C4FF6FE762E
:1013300035400584028C8388048B4FF68F752C40D2
:10134000B51E2C400D882C43751E2A400D892A435A
:101350004D882A436A4DA8420BD06F4DA84208D051
:10136000744DA84205D0744DA84202D0734DA842D6
:1013700013D14FF6F7752A404D892A434FF6FB7576
:101380002A408D882A434FF6FF652B404FF6FF55C4
:101390002B408D892B43CD892B4383800483CD88BB
:1013A0008586028470BD70B5002400220023058C60
:1013B0004FF6EF7635400584028C8388048B48F61F
:1013C000FF752C404FF6FF452C400D884FF6FF76F9
:1013D00006EA05252C434FF6DF752A400D8906EAFB
:1013E00005152A434D8806EA05152A43444DA842AF
:1013F00002D0494DA8421DD14FF67F752A404D8934
:101400004FF6FF7606EA05152A434FF6BF752A40C8
:101410008D8806EA05152A434FF6FF352B404FF21B
:10142000FF752B408D8906EA85052B43CD8906EA99
:1014300085052B4383800483CD880587028470BD96
:1014400070B5002400220023058C4FF6FF6635405E
:101450000584028C8388848B4FF68F752C404FF661
:10146000FC752C400D882C434FF6FF552A400D8902
:101470004FF6FF7606EA05252A434D8806EA05253C
:101480002A431F4DA84202D0234DA8421DD14FF23E
:10149000FF752A404D894FF6FF7606EA05252A4357
:1014A0004FF6FF352A408D8806EA05252A434EF679
:1014B000FF752B404DF6FF752B408D8906EA05150B
:1014C0002B43CD8906EA05152B4383808483CD8881
:1014D0008587028470BD70B5002200230024058C2E
:1014E0004EF6FF7635400584038C8488828B48F65F
:1014F000FF752A404FF6FF452A400D8820E0000086
:10150000002C01400004004000080040000C004096
:10151000001000400014004000340140004C014025
:10152000005001400054014000180040001C0040E1
:1015300000200040004001400044014000480140BC
:101540004FF6FF7606EA05252A434DF6FF752B4038
:101550000D8906EA05352B434D8806EA05352B43F0
:10156000FA4DA84202D0FA4DA84208D14BF6FF75B9
:101570002C408D894FF6FF7606EA85152C43848032
:101580008283CD88A0F84050038470BD828B4FF2D7
:10159000FF331A408283828B4FF6FF7303EA0123E5
:1015A0001A4382837047F0B50C461546002200218D
:1015B0000026078C4EF6FF7C07EA0C070784828B17
:1015C000018C4FF6FF7707EA043640F6FF473A40B2
:1015D0004FF6FF7707EA05273A434FF6FF7707EA0A
:1015E00003373A43D94FB8420ED0D94FB8420BD047
:1015F000B0F1804F08D0D74FB84205D0D64FB8428F
:1016000002D0D64FB84206D14DF6FF77394046F4A6
:101610008057394305E047F6FF57394044F4805777
:10162000394382830184F0BD828B4FF6F3731A40F5
:101630008283828B0A4382837047F0B50C4615463D
:10164000002200210026078C4FF6FF6C07EA0C07EA
:101650000784828B018C4FF6FF7707EA04264FF64A
:101660000C773A404FF6FF7707EA03172F433A43C8
:10167000B64FB8420ED0B64FB8420BD0B0F1804F43
:1016800008D0B44FB84205D0B34FB84202D0B34FE0
:10169000B84206D14FF6FF57394046F480773943B8
:1016A00005E04FF2FF57394044F480773943828395
:1016B0000184F0BD028B4FF2FF331A400283028B8C
:1016C0004FF6FF7303EA01231A4302837047F0B514
:1016D0000C461546002200210026078C4FF6EF7CB1
:1016E00007EA0C070784028B018C4FF6FF7707EAA5
:1016F000041640F6FF473A404FF6FF7707EA0337F4
:101700003A434FF6FF7707EA05273A438F4FB8422F
:101710000ED08F4FB8420BD0B0F1804F08D08D4F14
:10172000B84205D08C4FB84202D08C4FB84206D197
:101730004FF6DF77394046F01007394305E04FF6A2
:101740005F77394044F01007394302830184F0BDCC
:10175000028B4FF6F3731A400283028B0A43028313
:101760007047F0B50C46154600220021068C4FF656
:10177000FE773E400684028B018C4FF60C76324099
:101780007E1C06EA03162E433243704EB0420ED042
:101790006F4EB0420BD0B0F1804F08D06D4EB042CA
:1017A00005D06D4EB04202D06C4EB04206D14FF61D
:1017B000FD76314044F00106314305E04FF6F57601
:1017C000314044F00106314302830184F0BD70B51D
:1017D00005460C465D4885420ED05D4885420BD0DB
:1017E000B5F1804F08D05B48854205D05A48854204
:1017F00002D05A48854200D100E000BF208850B98D
:101800002389A28861882846FFF7ABFFE188284634
:10181000FFF79EFF25E0208804280AD12389A288AB
:1018200061882846FFF753FFE1882846FFF742FF0B
:1018300017E0208808280AD12389A28861882846D1
:10184000FFF7FBFEE1882846FFF7EEFE09E023895B
:10185000A28861882846FFF7A6FEE1882846FFF7A0
:1018600095FE70BD2DE9F04105460C460026012786
:10187000608808B9022600E00026A088012801D16E
:10188000022700E001272088A0B92389A288618867
:101890002846FFF766FFE1882846FFF759FF2389AE
:1018A0003A4631462846FFF712FFE1882846FFF7FF
:1018B00001FF13E02389A28861882846FFF707FF0C
:1018C000E1882846FFF7F6FE23893A463146284646
:1018D000FFF747FFE1882846FFF73AFFBDE8F081B0
:1018E0000A884B881A438B881A43CB881A430B8982
:1018F0001A434B891A438B891A43A0F84420704736
:101900004FF6FF71818000210180C180418001720A
:1019100070470021018041808180C1800181418127
:101920008181C18170470021018041800121818036
:101930000021C180018170470021018041808180A8
:10194000C18001814181818170470000002C0140EC
:10195000003401400004004000080040000C00403A
:1019600021B1028842F00102028004E002884FF6B1
:10197000FE731A400280704731B1B0F8442042F43F
:101980000042A0F8442005E0B0F84420C2F30E0263
:10199000A0F8442070471AB183890B43838102E089
:1019A00083898B43838170478182704741EA0203B8
:1019B000A0F8483070471AB183890B43838102E055
:1019C00083898B438381704701894FF6F8721140F8
:1019D000018170470A46002101894FF68F73194033
:1019E00011430181704730B504460D462946204613
:1019F000FFF7F0FF208940F00700208130BD2DE97E
:101A0000F04104460D4616461F46602D06D13B4662
:101A1000012231462046FFF75AFE05E03B460122EF
:101A200031462046FFF79DFE29462046FFF7D2FFAC
:101A3000208940F007002081BDE8F08130B50C46D8
:101A400000210189C9B24FF6FF7505EA0325154348
:101A500025432943018130BD2DE9F04105460E465D
:101A600017469846002443463A4631462846FFF733
:101A7000E5FF2C894FF6F870044044F007044FF658
:101A80008F70044044F070042C81BDE8F081F0B503
:101A900004460D4616461F463B463246294620461A
:101AA000FFF7CCFF208940F480402081F0BD018504
:101AB000828270470A46002101884FF68F731940D1
:101AC000114301807047F0B50C4615461E460021B3
:101AD000002200230189028B038C4FF6F8773940EE
:101AE00021434FF6FC473A4040F201173A434FF684
:101AF000DD773B404FF6FF7707EA06172F433B435E
:101B0000018102830384F0BD0A460021018B4FF658
:101B10008F7319401143018370470A460021018BDE
:101B200048F6FF7319404FF6FF7303EA0223194387
:101B3000018370470A460021818B4FF68F7319404D
:101B40001143818370470A460021818B48F6FF7359
:101B500019404FF6FF7303EA02231943818370474C
:101B600021B1028842F08002028004E002884FF630
:101B70007F731A400280704721B1828842F00402CC
:101B8000828004E082884FF6FB731A40828070479F
:101B900021B1828842F00802828004E082884FF6F8
:101BA000F7731A408280704721B1828842F00102A7
:101BB000828004E082884FF6FE731A40828070476C
:101BC0000A460021018B4FF6F77319401143018338
:101BD00070470A460021018B4FF2FF7319404FF600
:101BE000FF7303EA02231943018370470A46002169
:101BF000818B4FF6F77319401143818370470A4672
:101C00000021818B4FF2FF7319404FF6FF7303EAF7
:101C100002231943818370470A460021018B4FF646
:101C2000FB7319401143018370470A460021018B61
:101C30004FF6FF3319404FF6FF7303EA02231943AF
:101C4000018370470A460021818B4FF6FB731940D0
:101C50001143818370470A460021818B4FF6FF3381
:101C600019404FF6FF7303EA02231943818370473B
:101C70000A460021018B4FF67F73194011430183FF
:101C800070470A460021018BC1F30E014FF6FF7326
:101C900003EA02231943018370470A460021818B1E
:101CA0004FF67F7319401143818370470A46002124
:101CB000818BC1F30E014FF6FF7303EA0223194330
:101CC000818370470A460021018C4FF6FD7319404D
:101CD0001143018470470A460021018C4FF6F773C7
:101CE00019401143018470470A460021018C4FF6C8
:101CF000DF7319404FF6FF7303EA0213194301849F
:101D000070470A460021018C4FF67F7319404FF649
:101D1000FF7303EA02131943018470470A46002146
:101D2000018C4FF6FF5319404FF6FF7303EA02236D
:101D30001943018470470A460021018C4FF2FF735A
:101D400019404FF6FF7303EA0223194301847047D9
:101D50000A460021018C4DF6FF7319404FF6FF73C0
:101D600003EA023319430184704730B5002301248C
:101D70008C40A3B2048C9C430484048C02FA01F5C9
:101D8000ADB22C43048430BD30B5002304248C4014
:101D9000A3B2048C9C430484048C02FA01F5ADB216
:101DA0002C43048430BD70B503460020002418463F
:101DB000183001258D40ACB21D8CA5431D8409B19E
:101DC000082909D100EB6100056825F07005056060
:101DD0000568154305600EE00D1FC5F34E05284448
:101DE000056825F4E045056005684FF6FF7606EACC
:101DF00002263543056070BD21B1028842F002021F
:101E0000028004E002884FF6FD731A40028070479A
:101E100021B1028842F00402028004E002884FF6F9
:101E2000FB731A400280704721B1828842F0800221
:101E3000828004E082884FF67F731A408280704768
:101E400002884FF6F7731A40028002880A43028024
:101E5000704782884FF68F731A40828082880A43C7
:101E60008280704702894FF6F8731A400281028916
:101E70000A430281704702894FF67F731A4002813C
:101E800002890A43028170478184704781857047C7
:101E9000818670470187704781877047A0F840109E
:101EA000704702884FF6FF431A40028002880A43B7
:101EB000028070470146888E70470146088F704740
:101EC0000146888F70470146B1F8400070470146CF
:101ED000888C70470146088D704702460020138A9F
:101EE0000B400BB1012000E000207047CA43028282
:101EF000704730B50246002000230024158A05EA09
:101F00000103958905EA010413B10CB1012000E039
:101F1000002030BDCA4302827047000010B504465D
:101F2000FA48844208D101214015FEF7C1FD002185
:101F30006015FEF7BDFD17E0F548844208D1012188
:101F40000015FEF7B5FD00212015FEF7B1FD0BE0F1
:101F5000F048844208D10121C803FEF7A9FD002101
:101F60004FF40040FEF7A4FD10BD30B5024600203E
:101F700000235068E84C20400D790C6844EA0524A1
:101F8000204350609068E54C2040D1E902542C4336
:101F90004D7944EA450420439060D06A20F47000F3
:101FA0000C7C641EE4B2234340EA0350D06230BD8F
:101FB00000210160017141718160C16001210174E2
:101FC000704721B1826842F00102826003E08268BA
:101FD00022F001028260704721B1826842F480726F
:101FE000826003E0826822F480728260704710B5DC
:101FF0000023CBB21AB144681C43446002E0446839
:102000009C43446010BD816841F0080181607047C5
:10201000014600208A6802F008020AB1012000E0AF
:1020200000207047816841F00401816070470146DB
:1020300000208A6802F004020AB1012000E00020BA
:10204000704721B1826842F4A002826003E0826896
:1020500022F4A00282607047014600208A6802F4E0
:1020600080020AB1012000E00020704710B50A4646
:1020700000210023416821F46041531E41EA4331AD
:10208000416010BD21B1426842F40062426003E049
:10209000426822F4006242607047F0B504460D4683
:1020A00000200021092D11DDE068A5F10A0606EBEC
:1020B0004607072606FA07F18843A5F10A0606EB4C
:1020C000460603FA06F10843E0600CE0206905EBE0
:1020D0004507072606FA07F1884305EB450603FA8C
:1020E00006F108432061072A0FDA606B561E06EBE3
:1020F00086071F2606FA07F18843561E06EB86065A
:1021000005FA06F10843606322E00D2A0FDA206B1E
:10211000D61F06EB86071F2606FA07F18843D61F4F
:1021200006EB860605FA06F10843206310E0E06A34
:10213000A2F10D0606EB86071F2606FA07F1884373
:10214000A2F10D0606EB860605FA06F10843E062E9
:10215000F0BD21B1826842F48012826003E082689F
:1021600022F48012826070470146C86C80B27047CA
:1021700066484C300068704721B1426842F4806282
:10218000426003E0426822F480624260704721B1FD
:10219000426842F48052426003E0426822F4805276
:1021A000426070470A460021816821F4E0411143F2
:1021B0008160704721B1826842F40042826003E08E
:1021C000826822F400428260704721B1826842F442
:1021D0000212826003E0826822F402128260704779
:1021E000014600208A6802F400120AB1012000E0D2
:1021F00000207047F0B50446154600200022002656
:10220000092911DDE068A1F10A0707EB470C072750
:1022100007FA0CF29043A1F10A0707EB470703FA0C
:1022200007F21043E0600CE0206901EB410C072746
:1022300007FA0CF2904301EB410703FA07F210434F
:102240002061A06BC0F30156EF1C06F1010CA7EB57
:102250000C0707EB870C1F2707FA0CF29043EF1CC3
:1022600006F1010CA7EB0C0707EB870701FA07F251
:102270001043A063F0BD10B50A4600210023816B16
:1022800021F44011531E41EA0351816310BD08B58A
:10229000002300930090009B0B440093009B1A6066
:1022A00008BD08B5024600200090009201F1280008
:1022B000009B184400900098006880B208BD0A4650
:1022C00000214168164B194011434160704741623B
:1022D000826270470A460021416821F01F011143C4
:1022E0004160704740B109490831096841F4000173
:1022F000064A0832116007E004490831096821F4F0
:102300000001024A083211607047000000240140B9
:1023100000280140003C0140FFFEF0FFFDF7F1FF07
:10232000FFFD3FFF0246002013680B400BB1012068
:1023300000E000207047CA430260704770B5024653
:102340000020002300240B125568CEB205EA0604D3
:1023500015681D4015B10CB1012000E0002070BDD2
:1023600000220A12D34303607047000001684FF651
:10237000FE72114001600021016041608160C16016
:102380008D49884208D18C490839496841F00F01CC
:10239000894A083A51608AE087491431884208D155
:1023A00085490839496841F0F001834A083A51608B
:1023B0007DE081492831884208D17F490839496840
:1023C00041F470617C4A083A516070E07A493C31CE
:1023D000884208D178490839496841F47041764A01
:1023E000083A516063E074495031884208D172491B
:1023F0000839496841F470216F4A083A516056E043
:102400006D496431884208D16B490839496841F403
:102410007001694A083A516049E067497831884259
:1024200008D165490839496841F07061624A083A43
:1024300051603CE06149884206D1011F096841F0C2
:102440000F01021F116032E05C491431884208D14B
:102450005A49091F096841F0F001584A121F1160DA
:1024600025E056492831884208D15449091F096896
:1024700041F47061514A121F116018E04F493C311C
:10248000884208D14D49091F096841F470414B4AFF
:10249000121F11600BE049495031884207D147496A
:1024A000091F096841F47021444A121F11607047E6
:1024B00010B50022026847F6F0739A430C6A8B68E5
:1024C00023430C6923434C6923438C692343CC6920
:1024D00023434C6A23438C6A23431A430260CB682C
:1024E00043600B6883604B68C36010BD00210160CE
:1024F00041608160C160016141618161C1610162CE
:1025000041628162704721B1026842F001020260BB
:1025100004E002684FF6FE731A40026070471AB179
:1025200003680B43036002E003688B43036070475A
:10253000416070470146486880B2704701460020FC
:10254000002201F080531BB11C4B083B1A6802E0CB
:10255000194B083B1A6802EA01030BB1012000E0A5
:102560000020704700F0805119B11449091F08601C
:1025700002E01149083948607047014600200022F6
:1025800001F080531BB10D4B083B1A6802E00A4B67
:10259000083B1A6802EA01030BB1012000E00020A9
:1025A000704700F0805119B10449091F086002E02A
:1025B0000149083948607047080002400804024099
:1025C0000948804709480047FEE7FEE7FEE7FEE7C7
:1025D000FEE7FEE7FEE7FEE7FEE7FEE70448054903
:1025E000054A064B7047000067020008ED0000082E
:1025F000A0000020A0060020A0020020A0020020D1
:1026000008B501211C20FEF739FA6020ADF8000062
:1026100028208DF8030003208DF8020069468548C4
:10262000FDF770FF08BD08B501211C20FEF726FA52
:102630001820ADF8000010208DF8030003208DF85D
:10264000020069467C48FDF75DFF08BD08B5012121
:102650001C20FEF713FA4FF4C040ADF80000102024
:102660008DF8030003208DF8020069467348FDF7DA
:1026700049FF08BD08B501210420FEF7FFF903203A
:10268000ADF8000048208DF8030069466948FDF761
:1026900039FF08BD00B58BB06948FFF767FE694890
:1026A00000906948019000200290022003900020D1
:1026B0000490802005904000069080000790202024
:1026C00008900002099000200A9069465C48FFF7D4
:1026D000EFFE01215A48FFF716FF0BB000BD08B509
:1026E00001211C20FEF7CAF901210846FEF7B9F9BD
:1026F00001214802FEF7C2F93020ADF800000020A9
:102700008DF8030069464B48FDF7FCFE08BD00B597
:1027100085B0FFF7E4FFFFF7BDFF00200090012028
:102720008DF804008DF805004FF460200290002021
:10273000039002208DF81000694642484C38FFF79C
:1027400014FC0323012204213E484C38FFF7A5FC6A
:102750000323022205213B484C38FFF79EFC012150
:1027600038484C38FFF738FC012136484C38FFF721
:1027700028FC34484C38FFF746FC00BF31484C3841
:10278000FFF746FC0028F9D12E484C38FFF74AFCE9
:1027900000BF2C484C38FFF74AFC0028F9D1012132
:1027A00028484C38FFF74DFC05B000BD4FF4FA70D7
:1027B00000F070F84FF4A060FDF7D6FD00F08AF845
:1027C000FFF7A5FF00F05CF900F0BCF8FFF752FF3F
:1027D000FFF73CFFFFF727FFFFF712FF012251032E
:1027E0001648FDF740FF012291031448FDF73BFF17
:1027F000022142F20F7000F079F9022142F20F70CB
:1028000000F0B5F905E041F218514FF4AF5000F077
:102810004BF9F8E708B501210420FEF72FF9032052
:10282000ADF8000048208DF8030069460248FDF726
:1028300069FE08BD00080140000C01400010014085
:10284000080002404C2401402A000020704700BFCD
:10285000FEE700BFFEE700BFFEE700BFFEE77047F0
:1028600070477047704700EBC001C9004FF0E0228D
:102870005161002191610521116100BF4FF0E021FC
:10288000096901F480310029F8D004214FF0E022D9
:102890001161704700B5034603E04FF47A70FFF70B
:1028A000E2FF181EA3F101018BB2F6D100BD10B5F5
:1028B000044603E04FF47A70FFF7ECFF201EA4F10A
:1028C00001018CB2F6D110BD10B54FF4A060FDF738
:1028D0004BFD10BD10B5FDF763FF4FF48030FDF7E1
:1028E0007FFFFDF7BCFF0446012C24D14FF4E0111B
:1028F0000004FDF7DDFF0020FDF7F7FFA002FDF764
:10290000FDFF0020FEF703F80220FEF71BF9102060
:10291000FEF72CF90120FDF7D7FF00BF3920FDF7A6
:1029200082FF0028FAD00220FDF7D1FF00BFFDF79B
:10293000D7FF0828FBD1012144F27C00FEF79EF866
:1029400010BD000000B585B001210820FEF796F803
:1029500001210846FEF79FF84020ADF81000102036
:102960008DF8130003208DF8120004A93F48FDF7ED
:10297000C9FD8020ADF8100028208DF81300032039
:102980008DF8120004A93948FDF7BCFD4CF24F3018
:10299000ADF804004720ADF800000020ADF80600B7
:1029A000ADF8020069464FF08040FEF77DFC012241
:1029B00011469007FEF7EFFF1C208DF80C00012058
:1029C0008DF80D0000208DF80E0001208DF80F000D
:1029D00003A8FDF7CEFC01218807FEF7C1FF05B073
:1029E00000BD10B501218807FFF783FA20B1204808
:1029F0000068401C1E49086001218807FFF78AFA19
:102A000010BD10B540211948FDF72BFE4021174895
:102A1000FDF725FE1420FFF726FF40211348FDF7A0
:102A200020FE00BF80211148FDF7FFFD0028F9D0EE
:102A300000204FF08041888400BF80210B48FDF7C3
:102A4000F4FD0128F9D04FF08040808C09490860DE
:102A50000846006800F0D4F90446074900F00EF972
:102A6000064908600846006810BD0000000C0140DF
:102A700030000020380000200000684234000020B0
:102A800008B501211C20FDF7F9FF43F60150ADF810
:102A9000000010208DF8030003208DF80200694625
:102AA0005448FDF72FFD08BD70B504460D460122C0
:102AB00091025048FDF7D7FD00224FF480514D4858
:102AC000FDF7D1FD0122D1024A48FDF7CCFD0022DD
:102AD0004FF400514748FDF7C6FD21464648FFF731
:102AE000DBF929464548FFF7D7F970BD30B589B005
:102AF00005460C4601210220FDF7CDFF01210820EB
:102B0000FDF7BCFF01210846FDF7B8FF0120ADF835
:102B1000200018208DF8230003208DF8220008A93A
:102B20003448FDF7EFFCADF80850ADF80440002044
:102B3000ADF80600ADF80A0001A92F48FEF7B4FB76
:102B40006020ADF810000020ADF818000120ADF8AD
:102B5000120004A92848FEF773FC08212648FFF755
:102B600045F801212448FEF7FBFE09B030BD30B521
:102B700089B005460C4601210420FDF78CFF012198
:102B80000820FDF77BFF01210846FDF777FF4FF492
:102B90008070ADF8200018208DF8230003208DF8F8
:102BA000220008A91348FDF7ADFCADF80850ADF8B8
:102BB00004400020ADF80600ADF80A0001A90F4856
:102BC000FEF772FB6020ADF810000020ADF8180091
:102BD0000120ADF8120004A90848FEF731FC0821D5
:102BE0000648FFF703F801210448FEF7B9FE09B0D3
:102BF00030BD0000000C014000040040000800400F
:102C0000704770477047754600F02CF8AE460500D7
:102C10006946534620F00700854618B020B5FFF7F7
:102C2000DDFCBDE820404FF000064FF000074FF0FC
:102C300000084FF0000B21F00701AC46ACE8C009DA
:102C4000ACE8C009ACE8C009ACE8C0098D467047E3
:102C500010B50446AFF300802046BDE81040FDF7F4
:102C60008CBA0000004870473C0000200149182041
:102C7000ABBEFEE726000200704700004FF47F0C59
:102C80001CEAD0121EBF1CEAD11392EA0C0F93EA81
:102C90000C0F00F0858090EA010F48BF42F480726B
:102CA00040F4000C41F400002CF07F4120F07F4004
:102CB00000B58142A2EB03020FF2081CACEB504EB0
:102CC000C0F100009EF800E04FEA4E0E00FB0EFC43
:102CD00038BF49004FEA2C1C02F5FA020CFB0EF338
:102CE0004FEACE1E4FEA112C4FEAC1210EEB635E74
:102CF00042EB22420EFB0CFC4FEA1C5300FB03117B
:102D00004FEA112C4FEA01310EFB0CFC4FEADC4C70
:102D100000FB0C11C14228BF09184CEB03335DF8CE
:102D200004EB10EB410143EBC250B2F57C0F38BF0E
:102D3000704729D512F0F00F1CBF00F1C04000F021
:102D400000407047008182838485868788898B8CC8
:102D50008D8E8F919293959697999A9C9D9FA0A204
:102D6000A3A5A7A8AAACAEB0B2B3B5B7B9BCBEC054
:102D7000C2C5C7C9CCCED1D4D7D9DCDFE2E6E9ECF5
:102D8000F0F3F7FAFE0000004FEA400C0CF1807CF3
:102D9000BCF17E4F28BF7047B0F1C04000F08EB844
:102DA00090EA010F0CEAD11348BF42F480726245E9
:102DB00038BF634507D213F47F0F16D080EA0100B5
:102DC00000F00040704710B500F032F8097EFC3E7C
:102DD00000F005B880EA010000F00040704780EA8A
:102DE000010000F0004000F069B812F47F0F04BF4A
:102DF0000248704780EA010000F060B80000C07F20
:102E000010F0004148BF4042B0FA80F310FA03F2DC
:102E1000C3F19D030BD051EAC35101EB12205306BD
:102E200038BF704700F1010008BF20F00100704773
:102E30000EF1020E2EF0030E5EF8044B244204D471
:102E40004FEA4102B2F17F4F11D84FEA4003B3F18C
:102E50007F4F0CD80ED14FEAD07CB2F17F4F0CEBF4
:102E60004C0C0CF1020C08BF4CEBD17C04E04FF091
:102E7000080C01E04FEAD17C0CEB4C0324FA03F47C
:102E800004F00704B4F1040C06D20EEB840CBDE888
:102E900010404CF0010C6047DFE80CF0070802021C
:102EA0004FF00040A0F5800010BD0846420018BF5A
:102EB000D2F1807288BF00F0004010BDFF2141EACE
:102EC000D050C00570470000E82E00080000002028
:102ED0003C00000028010008242F00083C000020CE
:102EE000640600004401000800A24A04000000003B
:102EF00000000000010203040607080900000000AA
:102F0000010203040102030406070809020406087B
:102F100000000000000000000000000000000000B1
:042F200000000000AD
:04000005080000ED02
:00000001FF
